{
  "contractName": "ConnectFour",
  "abi": [
    {
      "constant": true,
      "inputs": [
        {
          "name": "",
          "type": "uint256"
        }
      ],
      "name": "funnyNames",
      "outputs": [
        {
          "name": "",
          "type": "string"
        }
      ],
      "payable": false,
      "stateMutability": "view",
      "type": "function"
    },
    {
      "constant": true,
      "inputs": [],
      "name": "owner",
      "outputs": [
        {
          "name": "",
          "type": "address"
        }
      ],
      "payable": false,
      "stateMutability": "view",
      "type": "function"
    },
    {
      "constant": false,
      "inputs": [
        {
          "name": "newOwner",
          "type": "address"
        }
      ],
      "name": "transferOwnership",
      "outputs": [],
      "payable": false,
      "stateMutability": "nonpayable",
      "type": "function"
    },
    {
      "inputs": [],
      "payable": false,
      "stateMutability": "nonpayable",
      "type": "constructor"
    },
    {
      "anonymous": false,
      "inputs": [
        {
          "indexed": false,
          "name": "gameId",
          "type": "uint256"
        }
      ],
      "name": "GameCreated",
      "type": "event"
    },
    {
      "anonymous": false,
      "inputs": [
        {
          "indexed": false,
          "name": "gameId",
          "type": "uint256"
        }
      ],
      "name": "GameStarted",
      "type": "event"
    },
    {
      "anonymous": false,
      "inputs": [
        {
          "indexed": false,
          "name": "gameId",
          "type": "uint256"
        }
      ],
      "name": "Move",
      "type": "event"
    },
    {
      "anonymous": false,
      "inputs": [
        {
          "indexed": false,
          "name": "gameId",
          "type": "uint256"
        }
      ],
      "name": "GameFinished",
      "type": "event"
    },
    {
      "anonymous": false,
      "inputs": [
        {
          "indexed": true,
          "name": "previousOwner",
          "type": "address"
        },
        {
          "indexed": true,
          "name": "newOwner",
          "type": "address"
        }
      ],
      "name": "OwnershipTransferred",
      "type": "event"
    },
    {
      "constant": true,
      "inputs": [],
      "name": "getNumberOfGames",
      "outputs": [
        {
          "name": "",
          "type": "uint256"
        }
      ],
      "payable": false,
      "stateMutability": "view",
      "type": "function"
    },
    {
      "constant": true,
      "inputs": [
        {
          "name": "_gameId",
          "type": "uint256"
        }
      ],
      "name": "getGameData",
      "outputs": [
        {
          "name": "gameName",
          "type": "string"
        },
        {
          "name": "timeCreated",
          "type": "uint256"
        },
        {
          "name": "timeStarted",
          "type": "uint256"
        },
        {
          "name": "amountBet",
          "type": "uint256"
        },
        {
          "name": "creator",
          "type": "address"
        },
        {
          "name": "opponent",
          "type": "address"
        },
        {
          "name": "state",
          "type": "uint8"
        },
        {
          "name": "isCreatorsTurn",
          "type": "bool"
        },
        {
          "name": "isCreatorWinner",
          "type": "bool"
        }
      ],
      "payable": false,
      "stateMutability": "view",
      "type": "function"
    },
    {
      "constant": false,
      "inputs": [
        {
          "name": "_gameId",
          "type": "uint256"
        }
      ],
      "name": "joinGame",
      "outputs": [],
      "payable": false,
      "stateMutability": "nonpayable",
      "type": "function"
    },
    {
      "constant": false,
      "inputs": [
        {
          "name": "_name",
          "type": "string"
        },
        {
          "name": "_bet",
          "type": "uint256"
        }
      ],
      "name": "createWaitingGame",
      "outputs": [
        {
          "name": "",
          "type": "uint256"
        }
      ],
      "payable": false,
      "stateMutability": "nonpayable",
      "type": "function"
    },
    {
      "constant": false,
      "inputs": [
        {
          "name": "_name",
          "type": "string"
        }
      ],
      "name": "addFunnyName",
      "outputs": [],
      "payable": false,
      "stateMutability": "nonpayable",
      "type": "function"
    },
    {
      "constant": false,
      "inputs": [
        {
          "name": "_name",
          "type": "string"
        },
        {
          "name": "_opponent",
          "type": "address"
        },
        {
          "name": "_bet",
          "type": "uint256"
        }
      ],
      "name": "createGame",
      "outputs": [
        {
          "name": "",
          "type": "uint256"
        }
      ],
      "payable": false,
      "stateMutability": "nonpayable",
      "type": "function"
    },
    {
      "constant": true,
      "inputs": [],
      "name": "generateRandomName",
      "outputs": [
        {
          "name": "",
          "type": "string"
        }
      ],
      "payable": false,
      "stateMutability": "view",
      "type": "function"
    }
  ],
  "bytecode": "0x606060405234156200001057600080fd5b336000806101000a81548173ffffffffffffffffffffffffffffffffffffffff021916908373ffffffffffffffffffffffffffffffffffffffff1602179055506002805480600101828162000066919062000278565b91600052602060002090016000606060405190810160405280602881526020017f54686973206973206e6f74207468652067616d6520796f7520617265206c6f6f81526020017f6b696e6720666f7200000000000000000000000000000000000000000000000081525090919091509080519060200190620000ea929190620002a7565b50506002805480600101828162000102919062000278565b916000526020600020900160006040805190810160405280601181526020017f436f6e6e6563742074776f202b2074776f000000000000000000000000000000815250909190915090805190602001906200015f929190620002a7565b50506002805480600101828162000177919062000278565b91600052602060002090016000606060405190810160405280602981526020017f53776967676974792053776f6f747920616c6c2074686520646f74692061726581526020017f20636f6e6e65637479000000000000000000000000000000000000000000000081525090919091509080519060200190620001fb929190620002a7565b50506002805480600101828162000213919062000278565b916000526020600020900160006040805190810160405280601681526020017f436f6e6e65637420616c6c2074686520646f74732021000000000000000000008152509091909150908051906020019062000270929190620002a7565b5050620003d3565b815481835581811511620002a257818360005260206000209182019101620002a191906200032e565b5b505050565b828054600181600116156101000203166002900490600052602060002090601f016020900481019282601f10620002ea57805160ff19168380011785556200031b565b828001600101855582156200031b579182015b828111156200031a578251825591602001919060010190620002fd565b5b5090506200032a91906200035f565b5090565b6200035c91905b808211156200035857600081816200034e919062000387565b5060010162000335565b5090565b90565b6200038491905b808211156200038057600081600090555060010162000366565b5090565b90565b50805460018160011615610100020316600290046000825580601f10620003af5750620003d0565b601f016020900490600052602060002090810190620003cf91906200035f565b5b50565b61181f80620003e36000396000f3006060604052600436106100a4576000357c0100000000000000000000000000000000000000000000000000000000900463ffffffff168063105387be146100a957806349c4e83e1461011357806363e39203146101af5780638da5cb5b146101dd5780639eebedac14610232578063b6a656651461027d578063dcb0a860146103bf578063dd2f4ebd1461044d578063efaa55a014610476578063f2fde38b14610499575b600080fd5b34156100b457600080fd5b6100fd6004808035906020019082018035906020019190919290803573ffffffffffffffffffffffffffffffffffffffff169060200190919080359060200190919050506104d2565b6040518082815260200191505060405180910390f35b341561011e57600080fd5b6101346004808035906020019091905050610762565b6040518080602001828103825283818151815260200191508051906020019080838360005b83811015610174578082015181840152602081019050610159565b50505050905090810190601f1680156101a15780820380516001836020036101000a031916815260200191505b509250505060405180910390f35b34156101ba57600080fd5b6101db6004808035906020019082018035906020019190919290505061081e565b005b34156101e857600080fd5b6101f06108b6565b604051808273ffffffffffffffffffffffffffffffffffffffff1673ffffffffffffffffffffffffffffffffffffffff16815260200191505060405180910390f35b341561023d57600080fd5b610267600480803590602001908201803590602001919091929080359060200190919050506108db565b6040518082815260200191505060405180910390f35b341561028857600080fd5b61029e6004808035906020019091905050610b32565b60405180806020018a81526020018981526020018881526020018773ffffffffffffffffffffffffffffffffffffffff1673ffffffffffffffffffffffffffffffffffffffff1681526020018673ffffffffffffffffffffffffffffffffffffffff1673ffffffffffffffffffffffffffffffffffffffff16815260200185600281111561032857fe5b60ff168152602001841515151581526020018315151515815260200182810382528b818151815260200191508051906020019080838360005b8381101561037c578082015181840152602081019050610361565b50505050905090810190601f1680156103a95780820380516001836020036101000a031916815260200191505b509a505050505050505050505060405180910390f35b34156103ca57600080fd5b6103d2610cb3565b6040518080602001828103825283818151815260200191508051906020019080838360005b838110156104125780820151818401526020810190506103f7565b50505050905090810190601f16801561043f5780820380516001836020036101000a031916815260200191505b509250505060405180910390f35b341561045857600080fd5b610460610e8f565b6040518082815260200191505060405180910390f35b341561048157600080fd5b6104976004808035906020019091905050610e9c565b005b34156104a457600080fd5b6104d0600480803573ffffffffffffffffffffffffffffffffffffffff16906020019091905050610ffe565b005b60008060018080548060010182816104ea9190611503565b91600052602060002090600602016000610120604051908101604052808b8b8080601f01602080910402602001604051908101604052809392919081815260200183838082843782019150505050505081526020014281526020014281526020018881526020013373ffffffffffffffffffffffffffffffffffffffff1681526020018973ffffffffffffffffffffffffffffffffffffffff1681526020016001600281111561059657fe5b815260200160011515815260200160011515815250909190915060008201518160000190805190602001906105cc929190611535565b5060208201518160010155604082015181600201556060820151816003015560808201518160040160006101000a81548173ffffffffffffffffffffffffffffffffffffffff021916908373ffffffffffffffffffffffffffffffffffffffff16021790555060a08201518160050160006101000a81548173ffffffffffffffffffffffffffffffffffffffff021916908373ffffffffffffffffffffffffffffffffffffffff16021790555060c08201518160050160146101000a81548160ff0219169083600281111561069d57fe5b021790555060e08201518160050160156101000a81548160ff0219169083151502179055506101008201518160050160166101000a81548160ff02191690831515021790555050500390507fbd19c47e9925eb6f7be8bb1c13a841e0240aaeaf17f217e90022e9c8eb66877f816040518082815260200191505060405180910390a17f50ad08f58a27f2851d7e3a1b3a6a46b290f2ce677e99642d30ff639721e77790816040518082815260200191505060405180910390a180915050949350505050565b60028181548110151561077157fe5b90600052602060002090016000915090508054600181600116156101000203166002900480601f0160208091040260200160405190810160405280929190818152602001828054600181600116156101000203166002900480156108165780601f106107eb57610100808354040283529160200191610816565b820191906000526020600020905b8154815290600101906020018083116107f957829003601f168201915b505050505081565b6000809054906101000a900473ffffffffffffffffffffffffffffffffffffffff1673ffffffffffffffffffffffffffffffffffffffff163373ffffffffffffffffffffffffffffffffffffffff1614151561087957600080fd5b6002805480600101828161088d91906115b5565b9160005260206000209001600084849091929091925091906108b09291906115e1565b50505050565b6000809054906101000a900473ffffffffffffffffffffffffffffffffffffffff1681565b60008060018080548060010182816108f39190611503565b91600052602060002090600602016000610120604051908101604052808a8a8080601f01602080910402602001604051908101604052809392919081815260200183838082843782019150505050505081526020014281526020014281526020018881526020013373ffffffffffffffffffffffffffffffffffffffff1681526020013373ffffffffffffffffffffffffffffffffffffffff16815260200160028081111561099e57fe5b815260200160011515815260200160011515815250909190915060008201518160000190805190602001906109d4929190611535565b5060208201518160010155604082015181600201556060820151816003015560808201518160040160006101000a81548173ffffffffffffffffffffffffffffffffffffffff021916908373ffffffffffffffffffffffffffffffffffffffff16021790555060a08201518160050160006101000a81548173ffffffffffffffffffffffffffffffffffffffff021916908373ffffffffffffffffffffffffffffffffffffffff16021790555060c08201518160050160146101000a81548160ff02191690836002811115610aa557fe5b021790555060e08201518160050160156101000a81548160ff0219169083151502179055506101008201518160050160166101000a81548160ff02191690831515021790555050500390507fbd19c47e9925eb6f7be8bb1c13a841e0240aaeaf17f217e90022e9c8eb66877f816040518082815260200191505060405180910390a1809150509392505050565b610b3a611661565b600080600080600080600080600060018b815481101515610b5757fe5b90600052602060002090600602019050806000018054600181600116156101000203166002900480601f016020809104026020016040519081016040528092919081815260200182805460018160011615610100020316600290048015610bff5780601f10610bd457610100808354040283529160200191610bff565b820191906000526020600020905b815481529060010190602001808311610be257829003601f168201915b505050505099508060010154985080600201549750806003015496508060040160009054906101000a900473ffffffffffffffffffffffffffffffffffffffff1695508060050160009054906101000a900473ffffffffffffffffffffffffffffffffffffffff1694508060050160149054906101000a900460ff1693508060050160159054906101000a900460ff1692508060050160169054906101000a900460ff169150509193959799909294969850565b610cbb611661565b6000610cc5611661565b610ccd611661565b6002805490503342604051808373ffffffffffffffffffffffffffffffffffffffff1673ffffffffffffffffffffffffffffffffffffffff166c0100000000000000000000000002815260140182815260200192505050604051809103902060019004811515610d3957fe5b069250610d886040805190810160405280600181526020017f2300000000000000000000000000000000000000000000000000000000000000815250610d83600280549050611153565b611320565b9150610e7b6040805190810160405280600381526020017f202d200000000000000000000000000000000000000000000000000000000000815250600285815481101515610dd257fe5b90600052602060002090018054600181600116156101000203166002900480601f016020809104026020016040519081016040528092919081815260200182805460018160011615610100020316600290048015610e715780601f10610e4657610100808354040283529160200191610e71565b820191906000526020600020905b815481529060010190602001808311610e5457829003601f168201915b5050505050611320565b9050610e878282611320565b935050505090565b6000600180549050905090565b6000600182815481101515610ead57fe5b90600052602060002090600602019050600280811115610ec957fe5b8160050160149054906101000a900460ff166002811115610ee657fe5b141515610ef257600080fd5b8060040160009054906101000a900473ffffffffffffffffffffffffffffffffffffffff1673ffffffffffffffffffffffffffffffffffffffff163373ffffffffffffffffffffffffffffffffffffffff1614151515610f5157600080fd5b338160050160006101000a81548173ffffffffffffffffffffffffffffffffffffffff021916908373ffffffffffffffffffffffffffffffffffffffff16021790555042816002018190555060018160050160146101000a81548160ff02191690836002811115610fbe57fe5b02179055507f50ad08f58a27f2851d7e3a1b3a6a46b290f2ce677e99642d30ff639721e77790826040518082815260200191505060405180910390a15050565b6000809054906101000a900473ffffffffffffffffffffffffffffffffffffffff1673ffffffffffffffffffffffffffffffffffffffff163373ffffffffffffffffffffffffffffffffffffffff1614151561105957600080fd5b600073ffffffffffffffffffffffffffffffffffffffff168173ffffffffffffffffffffffffffffffffffffffff161415151561109557600080fd5b8073ffffffffffffffffffffffffffffffffffffffff166000809054906101000a900473ffffffffffffffffffffffffffffffffffffffff1673ffffffffffffffffffffffffffffffffffffffff167f8be0079c531659141344cd1fd0a4f28419497f9722a3daafe3b4186f6b6457e060405160405180910390a3806000806101000a81548173ffffffffffffffffffffffffffffffffffffffff021916908373ffffffffffffffffffffffffffffffffffffffff16021790555050565b61115b611661565b6000611165611675565b600080611170611675565b600060649550856040518059106111845750595b9080825280601f01601f19166020018201604052509450600093505b60008814151561123757600a888115156111b657fe5b069250600a888115156111c557fe5b049750826030017f010000000000000000000000000000000000000000000000000000000000000002858580600101965081518110151561120257fe5b9060200101907effffffffffffffffffffffffffffffffffffffffffffffffffffffffffffff1916908160001a9053506111a0565b836040518059106112455750595b9080825280601f01601f19166020018201604052509150600090505b83811015611312578481600186030381518110151561127c57fe5b9060200101517f010000000000000000000000000000000000000000000000000000000000000090047f01000000000000000000000000000000000000000000000000000000000000000282828151811015156112d557fe5b9060200101907effffffffffffffffffffffffffffffffffffffffffffffffffffffffffffff1916908160001a9053508080600101915050611261565b819650505050505050919050565b611328611661565b611330611675565b611338611675565b611340611661565b611348611675565b600080600089965088955085518751016040518059106113655750595b9080825280601f01601f1916602001820160405250945084935060009250600091505b865182101561143b57868281518110151561139f57fe5b9060200101517f010000000000000000000000000000000000000000000000000000000000000090047f01000000000000000000000000000000000000000000000000000000000000000284848060010195508151811015156113fe57fe5b9060200101907effffffffffffffffffffffffffffffffffffffffffffffffffffffffffffff1916908160001a9053508180600101925050611388565b600090505b85518110156114f357858181518110151561145757fe5b9060200101517f010000000000000000000000000000000000000000000000000000000000000090047f01000000000000000000000000000000000000000000000000000000000000000284848060010195508151811015156114b657fe5b9060200101907effffffffffffffffffffffffffffffffffffffffffffffffffffffffffffff1916908160001a9053508080600101915050611440565b8397505050505050505092915050565b8154818355818115116115305760060281600602836000526020600020918201910161152f9190611689565b5b505050565b828054600181600116156101000203166002900490600052602060002090601f016020900481019282601f1061157657805160ff19168380011785556115a4565b828001600101855582156115a4579182015b828111156115a3578251825591602001919060010190611588565b5b5090506115b1919061175a565b5090565b8154818355818115116115dc578183600052602060002091820191016115db919061177f565b5b505050565b828054600181600116156101000203166002900490600052602060002090601f016020900481019282601f1061162257803560ff1916838001178555611650565b82800160010185558215611650579182015b8281111561164f578235825591602001919060010190611634565b5b50905061165d919061175a565b5090565b602060405190810160405280600081525090565b602060405190810160405280600081525090565b61175791905b8082111561175357600080820160006116a891906117ab565b6001820160009055600282016000905560038201600090556004820160006101000a81549073ffffffffffffffffffffffffffffffffffffffff02191690556005820160006101000a81549073ffffffffffffffffffffffffffffffffffffffff02191690556005820160146101000a81549060ff02191690556005820160156101000a81549060ff02191690556005820160166101000a81549060ff02191690555060060161168f565b5090565b90565b61177c91905b80821115611778576000816000905550600101611760565b5090565b90565b6117a891905b808211156117a4576000818161179b91906117ab565b50600101611785565b5090565b90565b50805460018160011615610100020316600290046000825580601f106117d157506117f0565b601f0160209004906000526020600020908101906117ef919061175a565b5b505600a165627a7a72305820dbcc603ba0e4880de5354b4dc40cde077a76b7804d00ba13a049266d8125ea690029",
  "source": "pragma solidity ^0.4.19;\n\nimport \"./ownable.sol\";\n\n\ncontract ConnectFour is Ownable {\n\n    enum State { Ended, InProgress, WaitingForOpponent }\n\n    struct Game {\n        string gameName;\n        uint timeCreated;\n        uint timeStarted;\n        uint amountBet;\n        address creator;\n        address opponent;\n        State state;\n        bool isCreatorsTurn;\n        bool isCreatorWinner;\n    }\n\n    Game[] games;\n    string[] public funnyNames;\n\n    event GameCreated(uint gameId);\n    event GameStarted(uint gameId);\n    event Move(uint gameId);\n    event GameFinished(uint gameId);\n\n\n    function ConnectFour() public {\n        funnyNames.push(\"This is not the game you are looking for\");\n        funnyNames.push(\"Connect two + two\");\n        funnyNames.push(\"Swiggity Swooty all the doti are connecty\");\n        funnyNames.push(\"Connect all the dots !\");\n    }\n\n    function getNumberOfGames() external view returns (uint) {\n        return games.length;\n    }\n\n    function getGameData(uint _gameId) external view returns (\n        string gameName,\n        uint timeCreated,\n        uint timeStarted,\n        uint amountBet,\n        address creator,\n        address opponent,\n        State state,\n        bool isCreatorsTurn,\n        bool isCreatorWinner)\n    {\n        Game storage myGame = games[_gameId];\n        gameName = myGame.gameName;\n        timeCreated = myGame.timeCreated;\n        timeStarted = myGame.timeStarted;\n        amountBet = myGame.amountBet;\n        creator = myGame.creator;\n        opponent = myGame.opponent;\n        state = myGame.state;\n        isCreatorsTurn = myGame.isCreatorsTurn;\n        isCreatorWinner = myGame.isCreatorWinner;\n    }\n\n    // Join a game that was waiting for an opponent\n    function joinGame(uint _gameId) external {\n        Game storage myGame = games[_gameId];\n        require(myGame.state == State.WaitingForOpponent);\n        require(msg.sender != myGame.creator);\n\n        myGame.opponent = msg.sender;\n        myGame.timeStarted = now;\n        myGame.state = State.InProgress;\n        GameStarted(_gameId);\n    }\n\n    function createWaitingGame(string _name, uint _bet) external returns (uint){\n        uint id = games.push(Game(_name, now, now, _bet, msg.sender, msg.sender, State.WaitingForOpponent, true, true)) - 1;\n        GameCreated(id);\n        return id;\n    }\n\n    function addFunnyName(string _name) external onlyOwner {\n        funnyNames.push(_name);\n    }\n\n    function createGame(string _name, address _opponent, uint _bet) external returns (uint){\n        uint id = games.push(Game(_name, now, now, _bet, msg.sender, _opponent, State.InProgress, true, true)) - 1;\n        GameCreated(id);\n        GameStarted(id);\n        return id;\n    }\n\n    function generateRandomName() external view returns (string) {\n        uint randIndex = uint(keccak256(msg.sender, now)) % funnyNames.length;\n        string memory gameNumber = strConcat(\"#\", uintToString(funnyNames.length));\n        string memory gameFunny = strConcat(\" - \", funnyNames[randIndex]);\n\n        return strConcat(gameNumber, gameFunny);\n    }\n\n    function strConcat(string _a, string _b) internal pure returns (string) {\n        bytes memory _bytesA = bytes(_a);\n        bytes memory _bytesB = bytes(_b);\n        string memory ab = new string(_bytesA.length + _bytesB.length);\n        bytes memory bytesAB = bytes(ab);\n        uint k = 0;\n        for (uint i = 0; i < _bytesA.length; i++) bytesAB[k++] = _bytesA[i];\n        for (uint j = 0; j < _bytesB.length; j++) bytesAB[k++] = _bytesB[j];\n        return string(bytesAB);\n    }\n\n    function uintToString(uint v) internal pure returns (string str) {\n        uint maxlength = 100;\n        bytes memory reversed = new bytes(maxlength);\n        uint i = 0;\n        while (v != 0) {\n            uint remainder = v % 10;\n            v = v / 10;\n            reversed[i++] = byte(48 + remainder);\n        }\n        bytes memory s = new bytes(i);\n        for (uint j = 0; j < i; j++) {\n            s[j] = reversed[i - 1 - j];\n        }\n        str = string(s);\n    }\n\n}",
  "sourcePath": "/Users/john/labs/smart3/contracts/ConnectFour.sol",
  "compiler": {
    "name": "solc",
    "version": "0.4.19+commit.c4cbbb05.Emscripten.clang"
  },
  "schemaVersion": "1.0.1",
  "updatedAt": "2018-02-23T23:19:24.275Z"
}